{
  "_format": "hh-sol-artifact-1",
  "contractName": "HabitStaking",
  "sourceName": "contracts/HabitStaking.sol",
  "abi": [
    {
      "inputs": [
        {
          "internalType": "address",
          "name": "initialOwner",
          "type": "address"
        }
      ],
      "stateMutability": "nonpayable",
      "type": "constructor"
    },
    {
      "inputs": [],
      "name": "EnforcedPause",
      "type": "error"
    },
    {
      "inputs": [],
      "name": "ExpectedPause",
      "type": "error"
    },
    {
      "inputs": [
        {
          "internalType": "address",
          "name": "owner",
          "type": "address"
        }
      ],
      "name": "OwnableInvalidOwner",
      "type": "error"
    },
    {
      "inputs": [
        {
          "internalType": "address",
          "name": "account",
          "type": "address"
        }
      ],
      "name": "OwnableUnauthorizedAccount",
      "type": "error"
    },
    {
      "inputs": [],
      "name": "ReentrancyGuardReentrantCall",
      "type": "error"
    },
    {
      "anonymous": false,
      "inputs": [
        {
          "indexed": true,
          "internalType": "uint256",
          "name": "habitId",
          "type": "uint256"
        },
        {
          "indexed": true,
          "internalType": "uint256",
          "name": "day",
          "type": "uint256"
        },
        {
          "indexed": false,
          "internalType": "uint256",
          "name": "forfeitedWei",
          "type": "uint256"
        }
      ],
      "name": "DayMissed",
      "type": "event"
    },
    {
      "anonymous": false,
      "inputs": [
        {
          "indexed": true,
          "internalType": "uint256",
          "name": "habitId",
          "type": "uint256"
        },
        {
          "indexed": true,
          "internalType": "address",
          "name": "staker",
          "type": "address"
        },
        {
          "indexed": false,
          "internalType": "string",
          "name": "category",
          "type": "string"
        },
        {
          "indexed": false,
          "internalType": "uint256",
          "name": "durationDays",
          "type": "uint256"
        },
        {
          "indexed": false,
          "internalType": "uint256",
          "name": "stakeAmount",
          "type": "uint256"
        }
      ],
      "name": "HabitCreated",
      "type": "event"
    },
    {
      "anonymous": false,
      "inputs": [
        {
          "indexed": true,
          "internalType": "address",
          "name": "previousOwner",
          "type": "address"
        },
        {
          "indexed": true,
          "internalType": "address",
          "name": "newOwner",
          "type": "address"
        }
      ],
      "name": "OwnershipTransferred",
      "type": "event"
    },
    {
      "anonymous": false,
      "inputs": [
        {
          "indexed": false,
          "internalType": "address",
          "name": "account",
          "type": "address"
        }
      ],
      "name": "Paused",
      "type": "event"
    },
    {
      "anonymous": false,
      "inputs": [
        {
          "indexed": true,
          "internalType": "uint256",
          "name": "habitId",
          "type": "uint256"
        },
        {
          "indexed": true,
          "internalType": "uint256",
          "name": "day",
          "type": "uint256"
        },
        {
          "indexed": true,
          "internalType": "address",
          "name": "verifier",
          "type": "address"
        }
      ],
      "name": "ProofApproved",
      "type": "event"
    },
    {
      "anonymous": false,
      "inputs": [
        {
          "indexed": true,
          "internalType": "uint256",
          "name": "habitId",
          "type": "uint256"
        },
        {
          "indexed": true,
          "internalType": "uint256",
          "name": "day",
          "type": "uint256"
        },
        {
          "indexed": true,
          "internalType": "address",
          "name": "verifier",
          "type": "address"
        },
        {
          "indexed": false,
          "internalType": "string",
          "name": "reason",
          "type": "string"
        }
      ],
      "name": "ProofRejected",
      "type": "event"
    },
    {
      "anonymous": false,
      "inputs": [
        {
          "indexed": true,
          "internalType": "uint256",
          "name": "habitId",
          "type": "uint256"
        },
        {
          "indexed": true,
          "internalType": "uint256",
          "name": "day",
          "type": "uint256"
        },
        {
          "indexed": false,
          "internalType": "string",
          "name": "ipfsCID",
          "type": "string"
        },
        {
          "indexed": false,
          "internalType": "string",
          "name": "proofType",
          "type": "string"
        }
      ],
      "name": "ProofSubmitted",
      "type": "event"
    },
    {
      "anonymous": false,
      "inputs": [
        {
          "indexed": true,
          "internalType": "uint256",
          "name": "habitId",
          "type": "uint256"
        },
        {
          "indexed": true,
          "internalType": "address",
          "name": "staker",
          "type": "address"
        },
        {
          "indexed": false,
          "internalType": "uint256",
          "name": "refund",
          "type": "uint256"
        },
        {
          "indexed": false,
          "internalType": "uint256",
          "name": "bonus",
          "type": "uint256"
        }
      ],
      "name": "StakeWithdrawn",
      "type": "event"
    },
    {
      "anonymous": false,
      "inputs": [
        {
          "indexed": false,
          "internalType": "address",
          "name": "account",
          "type": "address"
        }
      ],
      "name": "Unpaused",
      "type": "event"
    },
    {
      "anonymous": false,
      "inputs": [
        {
          "indexed": true,
          "internalType": "address",
          "name": "verifier",
          "type": "address"
        }
      ],
      "name": "VerifierAdded",
      "type": "event"
    },
    {
      "anonymous": false,
      "inputs": [
        {
          "indexed": true,
          "internalType": "address",
          "name": "verifier",
          "type": "address"
        }
      ],
      "name": "VerifierRemoved",
      "type": "event"
    },
    {
      "inputs": [],
      "name": "MAX_DAYS",
      "outputs": [
        {
          "internalType": "uint256",
          "name": "",
          "type": "uint256"
        }
      ],
      "stateMutability": "view",
      "type": "function"
    },
    {
      "inputs": [],
      "name": "MIN_STAKE",
      "outputs": [
        {
          "internalType": "uint256",
          "name": "",
          "type": "uint256"
        }
      ],
      "stateMutability": "view",
      "type": "function"
    },
    {
      "inputs": [],
      "name": "VERIFICATION_WINDOW",
      "outputs": [
        {
          "internalType": "uint256",
          "name": "",
          "type": "uint256"
        }
      ],
      "stateMutability": "view",
      "type": "function"
    },
    {
      "inputs": [],
      "name": "VERIFIER_FEE_BPS",
      "outputs": [
        {
          "internalType": "uint256",
          "name": "",
          "type": "uint256"
        }
      ],
      "stateMutability": "view",
      "type": "function"
    },
    {
      "inputs": [
        {
          "internalType": "address",
          "name": "v",
          "type": "address"
        }
      ],
      "name": "addVerifier",
      "outputs": [],
      "stateMutability": "nonpayable",
      "type": "function"
    },
    {
      "inputs": [
        {
          "internalType": "uint256",
          "name": "habitId",
          "type": "uint256"
        },
        {
          "internalType": "uint256",
          "name": "day",
          "type": "uint256"
        }
      ],
      "name": "approveProof",
      "outputs": [],
      "stateMutability": "nonpayable",
      "type": "function"
    },
    {
      "inputs": [],
      "name": "claimVerifierFees",
      "outputs": [],
      "stateMutability": "nonpayable",
      "type": "function"
    },
    {
      "inputs": [
        {
          "internalType": "string",
          "name": "description",
          "type": "string"
        },
        {
          "internalType": "string",
          "name": "category",
          "type": "string"
        },
        {
          "internalType": "uint256",
          "name": "durationDays",
          "type": "uint256"
        }
      ],
      "name": "createHabit",
      "outputs": [],
      "stateMutability": "payable",
      "type": "function"
    },
    {
      "inputs": [],
      "name": "forfeitPool",
      "outputs": [
        {
          "internalType": "uint256",
          "name": "",
          "type": "uint256"
        }
      ],
      "stateMutability": "view",
      "type": "function"
    },
    {
      "inputs": [
        {
          "internalType": "uint256",
          "name": "habitId",
          "type": "uint256"
        }
      ],
      "name": "getCurrentDay",
      "outputs": [
        {
          "internalType": "uint256",
          "name": "",
          "type": "uint256"
        }
      ],
      "stateMutability": "view",
      "type": "function"
    },
    {
      "inputs": [
        {
          "internalType": "uint256",
          "name": "habitId",
          "type": "uint256"
        },
        {
          "internalType": "uint256",
          "name": "day",
          "type": "uint256"
        }
      ],
      "name": "getDailyProof",
      "outputs": [
        {
          "components": [
            {
              "internalType": "string",
              "name": "ipfsCID",
              "type": "string"
            },
            {
              "internalType": "string",
              "name": "proofType",
              "type": "string"
            },
            {
              "internalType": "string",
              "name": "description",
              "type": "string"
            },
            {
              "internalType": "uint256",
              "name": "submittedAt",
              "type": "uint256"
            },
            {
              "internalType": "enum HabitStaking.ProofStatus",
              "name": "status",
              "type": "uint8"
            },
            {
              "internalType": "string",
              "name": "verifierNote",
              "type": "string"
            }
          ],
          "internalType": "struct HabitStaking.DailyProof",
          "name": "",
          "type": "tuple"
        }
      ],
      "stateMutability": "view",
      "type": "function"
    },
    {
      "inputs": [
        {
          "internalType": "uint256",
          "name": "habitId",
          "type": "uint256"
        }
      ],
      "name": "getHabitInfo",
      "outputs": [
        {
          "components": [
            {
              "internalType": "address",
              "name": "staker",
              "type": "address"
            },
            {
              "internalType": "string",
              "name": "description",
              "type": "string"
            },
            {
              "internalType": "string",
              "name": "category",
              "type": "string"
            },
            {
              "internalType": "uint256",
              "name": "durationDays",
              "type": "uint256"
            },
            {
              "internalType": "uint256",
              "name": "stakeAmount",
              "type": "uint256"
            },
            {
              "internalType": "uint256",
              "name": "startTimestamp",
              "type": "uint256"
            },
            {
              "internalType": "uint256",
              "name": "completedDays",
              "type": "uint256"
            },
            {
              "internalType": "uint256",
              "name": "missedDays",
              "type": "uint256"
            },
            {
              "internalType": "bool",
              "name": "active",
              "type": "bool"
            },
            {
              "internalType": "bool",
              "name": "withdrawn",
              "type": "bool"
            }
          ],
          "internalType": "struct HabitStaking.HabitInfo",
          "name": "",
          "type": "tuple"
        }
      ],
      "stateMutability": "view",
      "type": "function"
    },
    {
      "inputs": [
        {
          "internalType": "uint256[]",
          "name": "habitIds",
          "type": "uint256[]"
        },
        {
          "internalType": "uint256[]",
          "name": "dayIndices",
          "type": "uint256[]"
        }
      ],
      "name": "getPendingProofsForVerifier",
      "outputs": [
        {
          "internalType": "bool[]",
          "name": "isPending",
          "type": "bool[]"
        }
      ],
      "stateMutability": "view",
      "type": "function"
    },
    {
      "inputs": [],
      "name": "getTotalHabits",
      "outputs": [
        {
          "internalType": "uint256",
          "name": "",
          "type": "uint256"
        }
      ],
      "stateMutability": "view",
      "type": "function"
    },
    {
      "inputs": [
        {
          "internalType": "address",
          "name": "user",
          "type": "address"
        }
      ],
      "name": "getUserHabits",
      "outputs": [
        {
          "internalType": "uint256[]",
          "name": "",
          "type": "uint256[]"
        }
      ],
      "stateMutability": "view",
      "type": "function"
    },
    {
      "inputs": [
        {
          "internalType": "address",
          "name": "",
          "type": "address"
        }
      ],
      "name": "isVerifier",
      "outputs": [
        {
          "internalType": "bool",
          "name": "",
          "type": "bool"
        }
      ],
      "stateMutability": "view",
      "type": "function"
    },
    {
      "inputs": [
        {
          "internalType": "uint256",
          "name": "habitId",
          "type": "uint256"
        },
        {
          "internalType": "uint256",
          "name": "day",
          "type": "uint256"
        }
      ],
      "name": "markDayMissed",
      "outputs": [],
      "stateMutability": "nonpayable",
      "type": "function"
    },
    {
      "inputs": [],
      "name": "owner",
      "outputs": [
        {
          "internalType": "address",
          "name": "",
          "type": "address"
        }
      ],
      "stateMutability": "view",
      "type": "function"
    },
    {
      "inputs": [],
      "name": "pause",
      "outputs": [],
      "stateMutability": "nonpayable",
      "type": "function"
    },
    {
      "inputs": [],
      "name": "paused",
      "outputs": [
        {
          "internalType": "bool",
          "name": "",
          "type": "bool"
        }
      ],
      "stateMutability": "view",
      "type": "function"
    },
    {
      "inputs": [
        {
          "internalType": "uint256",
          "name": "habitId",
          "type": "uint256"
        },
        {
          "internalType": "uint256",
          "name": "day",
          "type": "uint256"
        },
        {
          "internalType": "string",
          "name": "reason",
          "type": "string"
        }
      ],
      "name": "rejectProof",
      "outputs": [],
      "stateMutability": "nonpayable",
      "type": "function"
    },
    {
      "inputs": [
        {
          "internalType": "address",
          "name": "v",
          "type": "address"
        }
      ],
      "name": "removeVerifier",
      "outputs": [],
      "stateMutability": "nonpayable",
      "type": "function"
    },
    {
      "inputs": [],
      "name": "renounceOwnership",
      "outputs": [],
      "stateMutability": "nonpayable",
      "type": "function"
    },
    {
      "inputs": [
        {
          "internalType": "uint256",
          "name": "habitId",
          "type": "uint256"
        },
        {
          "internalType": "uint256",
          "name": "day",
          "type": "uint256"
        },
        {
          "internalType": "string",
          "name": "ipfsCID",
          "type": "string"
        },
        {
          "internalType": "string",
          "name": "proofType",
          "type": "string"
        },
        {
          "internalType": "string",
          "name": "description",
          "type": "string"
        }
      ],
      "name": "submitDailyProof",
      "outputs": [],
      "stateMutability": "nonpayable",
      "type": "function"
    },
    {
      "inputs": [
        {
          "internalType": "address",
          "name": "newOwner",
          "type": "address"
        }
      ],
      "name": "transferOwnership",
      "outputs": [],
      "stateMutability": "nonpayable",
      "type": "function"
    },
    {
      "inputs": [],
      "name": "unpause",
      "outputs": [],
      "stateMutability": "nonpayable",
      "type": "function"
    },
    {
      "inputs": [
        {
          "internalType": "uint256",
          "name": "",
          "type": "uint256"
        }
      ],
      "name": "verifierList",
      "outputs": [
        {
          "internalType": "address",
          "name": "",
          "type": "address"
        }
      ],
      "stateMutability": "view",
      "type": "function"
    },
    {
      "inputs": [
        {
          "internalType": "uint256",
          "name": "habitId",
          "type": "uint256"
        }
      ],
      "name": "withdrawStake",
      "outputs": [],
      "stateMutability": "nonpayable",
      "type": "function"
    },
    {
      "stateMutability": "payable",
      "type": "receive"
    }
  ],
  "bytecode": "0x60806040523480156200001157600080fd5b5060405162003138380380620031388339810160408190526200003491620000eb565b8060017f9b779b17422d0df92223018b32b4d1fa46e071723d6817e2486d003becc55f00556001600160a01b0381166200008857604051631e4fbdf760e01b81526000600482015260240160405180910390fd5b62000093816200009b565b50506200011d565b600080546001600160a01b038381166001600160a01b0319831681178455604051919092169283917f8be0079c531659141344cd1fd0a4f28419497f9722a3daafe3b4186f6b6457e09190a35050565b600060208284031215620000fe57600080fd5b81516001600160a01b03811681146200011657600080fd5b9392505050565b61300b806200012d6000396000f3fe6080604052600436106101bb5760003560e01c806357762ddd116100ec5780638da5cb5b1161008a578063cb1c2b5c11610064578063cb1c2b5c146104de578063df0cd52e146104f9578063f2fde38b14610519578063f8379c731461053957600080fd5b80638da5cb5b146104805780639000b3d61461049e578063ca2dfd0a146104be57600080fd5b8063693eafff116100c6578063693eafff1461042a5780636fb541f914610440578063715018a6146104565780638456cb591461046b57600080fd5b806357762ddd146103a65780635c975abb146103de5780635cfd72c5146103fd57600080fd5b80632f85f1b411610159578063384316e811610133578063384316e8146103175780633f4ba83a1461033757806343334dce1461034c578063556ad4051461037957600080fd5b80632f85f1b4146102ab57806333105218146102c0578063355a34c81461030057600080fd5b8063222bae3011610195578063222bae301461023457806325d5971f146102475780632bd56ed5146102675780632ee4018f1461028757600080fd5b806309897daa146101c7578063113ac72f146101e957806320cb67a8146101fe57600080fd5b366101c257005b600080fd5b3480156101d357600080fd5b506101e76101e23660046125e1565b610559565b005b3480156101f557600080fd5b506101e7610880565b34801561020a57600080fd5b5061021e6102193660046125e1565b610a31565b60405161022b919061265f565b60405180910390f35b6101e761024236600461275b565b610d0c565b34801561025357600080fd5b506101e76102623660046127cf565b61105f565b34801561027357600080fd5b506101e76102823660046127e8565b6114a0565b34801561029357600080fd5b5061029d6101f481565b60405190815260200161022b565b3480156102b757600080fd5b5060015461029d565b3480156102cc57600080fd5b506102f06102db366004612895565b60056020526000908152604090205460ff1681565b604051901515815260200161022b565b34801561030c57600080fd5b5061029d6202a30081565b34801561032357600080fd5b5061029d6103323660046127cf565b611962565b34801561034357600080fd5b506101e76119c1565b34801561035857600080fd5b5061036c610367366004612895565b6119d1565b60405161022b91906128c5565b34801561038557600080fd5b506103996103943660046127cf565b611a3d565b60405161022b9190612909565b3480156103b257600080fd5b506103c66103c13660046127cf565b611c6c565b6040516001600160a01b03909116815260200161022b565b3480156103ea57600080fd5b50600054600160a01b900460ff166102f0565b34801561040957600080fd5b5061041d610418366004612a04565b611c96565b60405161022b9190612a70565b34801561043657600080fd5b5061029d61016d81565b34801561044c57600080fd5b5061029d60075481565b34801561046257600080fd5b506101e7611d8e565b34801561047757600080fd5b506101e7611da0565b34801561048c57600080fd5b506000546001600160a01b03166103c6565b3480156104aa57600080fd5b506101e76104b9366004612895565b611db0565b3480156104ca57600080fd5b506101e76104d9366004612895565b611f03565b3480156104ea57600080fd5b5061029d66038d7ea4c6800081565b34801561050557600080fd5b506101e7610514366004612aaa565b6120c7565b34801561052557600080fd5b506101e7610534366004612895565b612262565b34801561054557600080fd5b506101e76105543660046125e1565b61229d565b8160015481106105845760405162461bcd60e51b815260040161057b90612af1565b60405180910390fd5b6000838152600260205260409020600881015460ff1680156105b057506008810154610100900460ff16155b6105cc5760405162461bcd60e51b815260040161057b90612b33565b600183101580156105e1575080600301548311155b61062d5760405162461bcd60e51b815260206004820152601e60248201527f48616269745374616b696e673a20646179206f7574206f662072616e67650000604482015260640161057b565b600061063c82600501546123a9565b90508084106106995760405162461bcd60e51b815260206004820152602360248201527f48616269745374616b696e673a2064617920686173206e6f7420656e646564206044820152621e595d60ea1b606482015260840161057b565b600085815260036020908152604080832087845290915290206001600482015460ff1660038111156106cd576106cd612649565b03610777576202a30081600301546106e59190612b8a565b4210156107495760405162461bcd60e51b815260206004820152602c60248201527f48616269745374616b696e673a20766572696669636174696f6e2077696e646f60448201526b3b9039ba34b6361037b832b760a11b606482015260840161057b565b60048101805460ff1916600217905560068301805490600061076a83612b9d565b9190505550505050505050565b6000600482015460ff16600381111561079257610792612649565b146107ea5760405162461bcd60e51b815260206004820152602260248201527f48616269745374616b696e673a2064617920616c7265616479207265736f6c76604482015261195960f21b606482015260840161057b565b60048101805460ff1916600317905560078301805490600061080b83612b9d565b91905055506000836003015484600401546108269190612bb6565b9050806007600082825461083a9190612b8a565b9091555050604051818152869088907f99070ea5934c62f6b56242bc175d305c300befa1ddcf88172777724ee85940089060200160405180910390a3505050505b505050565b6108886123e4565b610890612411565b60006127106101f46007546108a59190612bd8565b6108af9190612bb6565b9050600081116109015760405162461bcd60e51b815260206004820152601e60248201527f48616269745374616b696e673a206e6f7468696e6720746f20636c61696d0000604482015260640161057b565b8047101561095c5760405162461bcd60e51b815260206004820152602260248201527f48616269745374616b696e673a20696e73756666696369656e742062616c616e604482015261636560f01b606482015260840161057b565b806007600082825461096e9190612bef565b9091555050600080546040516001600160a01b039091169083908381818185875af1925050503d80600081146109c0576040519150601f19603f3d011682016040523d82523d6000602084013e6109c5565b606091505b5050905080610a165760405162461bcd60e51b815260206004820152601d60248201527f48616269745374616b696e673a207472616e73666572206661696c6564000000604482015260640161057b565b5050610a2f6001600080516020612fb683398151915255565b565b610a3961259a565b826001548110610a5b5760405162461bcd60e51b815260040161057b90612af1565b600084815260036020908152604080832086845290915290819020815160c08101909252805482908290610a8e90612c02565b80601f0160208091040260200160405190810160405280929190818152602001828054610aba90612c02565b8015610b075780601f10610adc57610100808354040283529160200191610b07565b820191906000526020600020905b815481529060010190602001808311610aea57829003601f168201915b50505050508152602001600182018054610b2090612c02565b80601f0160208091040260200160405190810160405280929190818152602001828054610b4c90612c02565b8015610b995780601f10610b6e57610100808354040283529160200191610b99565b820191906000526020600020905b815481529060010190602001808311610b7c57829003601f168201915b50505050508152602001600282018054610bb290612c02565b80601f0160208091040260200160405190810160405280929190818152602001828054610bde90612c02565b8015610c2b5780601f10610c0057610100808354040283529160200191610c2b565b820191906000526020600020905b815481529060010190602001808311610c0e57829003601f168201915b50505091835250506003828101546020830152600483015460409092019160ff1690811115610c5c57610c5c612649565b6003811115610c6d57610c6d612649565b8152602001600582018054610c8190612c02565b80601f0160208091040260200160405190810160405280929190818152602001828054610cad90612c02565b8015610cfa5780601f10610ccf57610100808354040283529160200191610cfa565b820191906000526020600020905b815481529060010190602001808311610cdd57829003601f168201915b50505050508152505091505092915050565b610d1461242d565b8315801590610d2557506101188411155b610d875760405162461bcd60e51b815260206004820152602d60248201527f48616269745374616b696e673a206465736372697074696f6e206d757374206260448201526c6520312d32383020636861727360981b606482015260840161057b565b60018110158015610d9a575061016d8111155b610df85760405162461bcd60e51b815260206004820152602960248201527f48616269745374616b696e673a206475726174696f6e206d75737420626520316044820152682d333635206461797360b81b606482015260840161057b565b66038d7ea4c68000341015610e605760405162461bcd60e51b815260206004820152602860248201527f48616269745374616b696e673a206d696e696d756d207374616b65206973203060448201526705c606062408aa8960c31b606482015260840161057b565b6001805460009182610e7183612b9d565b919050559050604051806101400160405280336001600160a01b0316815260200187878080601f016020809104026020016040519081016040528093929190818152602001838380828437600092019190915250505090825250604080516020601f88018190048102820181019092528681529181019190879087908190840183828082843760009201829052509385525050506020808301869052346040808501919091524260608501526080840183905260a08401839052600160c0850181905260e090940183905285835260028252909120835181546001600160a01b0319166001600160a01b03909116178155908301519091820190610f759082612c9c565b5060408201516002820190610f8a9082612c9c565b5060608201516003820155608082015160048083019190915560a0830151600583015560c0830151600683015560e0830151600783015561010080840151600890930180546101209095015161ffff1990951693151561ff001916939093179315150292909217905533600081815260209283526040808220805460018101825590835293909120909201839055905182907f8203ee61e42b2ffc0f2300ef1a604c91268a68a039481ef668967f1517bd23c19061104f908890889088903490612d85565b60405180910390a3505050505050565b611067612411565b8060015481106110895760405162461bcd60e51b815260040161057b90612af1565b60008281526002602052604090205482906001600160a01b031633146110c15760405162461bcd60e51b815260040161057b90612dac565b6000838152600260205260409020600881015460ff166110f35760405162461bcd60e51b815260040161057b90612b33565b6008810154610100900460ff161561114d5760405162461bcd60e51b815260206004820152601f60248201527f48616269745374616b696e673a20616c72656164792077697468647261776e00604482015260640161057b565b600061115c82600501546123a9565b9050816003015481116111bd5760405162461bcd60e51b8152602060048201526024808201527f48616269745374616b696e673a206861626974206e6f742066696e6973686564604482015263081e595d60e21b606482015260840161057b565b60088201805461ffff1916610100179055600060015b8360030154811161123357600087815260036020818152604080842085855290915282206004015460ff169081111561120e5761120e612649565b03611221578161121d81612b9d565b9250505b8061122b81612b9d565b9150506111d3565b5060008184600701546112469190612b8a565b9050836003015481111561125b575060038301545b6000846003015485600401546112719190612bb6565b9050600061127f8284612bd8565b905080600760008282546112939190612b8a565b909155505060048601546000906112ab908390612bef565b90506000841580156112be575082600754115b15611329576000836007546112d39190612bef565b90506127106112e4826107d0612bd8565b6112ee9190612bb6565b91506112fb600282612bb6565b8211156113105761130d600282612bb6565b91505b81600760008282546113229190612bef565b9091555050505b60006113358284612b8a565b90508047101561139b5760405162461bcd60e51b815260206004820152602b60248201527f48616269745374616b696e673a20696e73756666696369656e7420636f6e747260448201526a6163742062616c616e636560a81b606482015260840161057b565b604080518481526020810184905233918e917f420b8cfea8a9078a338e993e3ccf10ca4e2a82f92b9e7306ca5b44b15157ec57910160405180910390a3604051600090339083908381818185875af1925050503d806000811461141a576040519150601f19603f3d011682016040523d82523d6000602084013e61141f565b606091505b505090508061147a5760405162461bcd60e51b815260206004820152602160248201527f48616269745374616b696e673a20455448207472616e73666572206661696c656044820152601960fa1b606482015260840161057b565b50505050505050505050505061149d6001600080516020612fb683398151915255565b50565b8760015481106114c25760405162461bcd60e51b815260040161057b90612af1565b60008981526002602052604090205489906001600160a01b031633146114fa5760405162461bcd60e51b815260040161057b90612dac565b61150261242d565b60008a8152600260205260409020600881015460ff16801561152e57506008810154610100900460ff16155b61154a5760405162461bcd60e51b815260040161057b90612b33565b60018a1015801561155f575080600301548a11155b6115ab5760405162461bcd60e51b815260206004820152601e60248201527f48616269745374616b696e673a20646179206f7574206f662072616e67650000604482015260640161057b565b876116075760405162461bcd60e51b815260206004820152602660248201527f48616269745374616b696e673a2049504653204349442063616e6e6f7420626560448201526520656d70747960d01b606482015260840161057b565b600061161682600501546123a9565b9050808b11156116835760405162461bcd60e51b815260206004820152603260248201527f48616269745374616b696e673a2063616e6e6f74207375626d69742070726f6f6044820152716620666f722061206675747572652064617960701b606482015260840161057b565b806001148061169c5750611698600182612bef565b8b10155b6117045760405162461bcd60e51b815260206004820152603360248201527f48616269745374616b696e673a20746f6f206c61746520746f207375626d69746044820152722070726f6f6620666f7220746869732064617960681b606482015260840161057b565b60008c81526003602081815260408084208f855290915282206004015460ff169081111561173457611734612649565b1461179c5760405162461bcd60e51b815260206004820152603260248201527f48616269745374616b696e673a2070726f6f6620616c7265616479207375626d604482015271697474656420666f7220746869732064617960701b606482015260840161057b565b6040518060c001604052808b8b8080601f016020809104026020016040519081016040528093929190818152602001838380828437600092019190915250505090825250604080516020601f8c018190048102820181019092528a815291810191908b908b9081908401838280828437600092019190915250505090825250604080516020601f8a01819004810282018101909252888152918101919089908990819084018382808284376000920191909152505050908252504260208201526040016001815260408051602081810183526000808352938101919091528f8352600381528183208f845290529020815181906118999082612c9c565b50602082015160018201906118ae9082612c9c565b50604082015160028201906118c39082612c9c565b506060820151816003015560808201518160040160006101000a81548160ff021916908360038111156118f8576118f8612649565b021790555060a082015160058201906119119082612c9c565b509050508a8c7fdecd18a565731bcc3283d7427d809e2065c027862b4ee6f789d5d1b86b35c4258c8c8c8c60405161194c9493929190612df2565b60405180910390a3505050505050505050505050565b60008160015481106119865760405162461bcd60e51b815260040161057b90612af1565b6000838152600260205260409020600881015460ff166119aa5760009250506119bb565b6119b781600501546123a9565b9250505b50919050565b6119c96123e4565b610a2f612458565b6001600160a01b038116600090815260046020908152604091829020805483518184028101840190945280845260609392830182828015611a3157602002820191906000526020600020905b815481526020019060010190808311611a1d575b50505050509050919050565b611aa060405180610140016040528060006001600160a01b03168152602001606081526020016060815260200160008152602001600081526020016000815260200160008152602001600081526020016000151581526020016000151581525090565b816001548110611ac25760405162461bcd60e51b815260040161057b90612af1565b6000838152600260209081526040918290208251610140810190935280546001600160a01b031683526001810180549192840191611aff90612c02565b80601f0160208091040260200160405190810160405280929190818152602001828054611b2b90612c02565b8015611b785780601f10611b4d57610100808354040283529160200191611b78565b820191906000526020600020905b815481529060010190602001808311611b5b57829003601f168201915b50505050508152602001600282018054611b9190612c02565b80601f0160208091040260200160405190810160405280929190818152602001828054611bbd90612c02565b8015611c0a5780601f10611bdf57610100808354040283529160200191611c0a565b820191906000526020600020905b815481529060010190602001808311611bed57829003601f168201915b505050918352505060038201546020820152600482015460408201526005820154606082015260068201546080820152600782015460a082015260089091015460ff808216151560c084015261010090910416151560e0909101529392505050565b60068181548110611c7c57600080fd5b6000918252602090912001546001600160a01b0316905081565b60608367ffffffffffffffff811115611cb157611cb1612c36565b604051908082528060200260200182016040528015611cda578160200160208202803683370190505b50905060005b84811015611d8557600160036000888885818110611d0057611d00612e24565b9050602002013581526020019081526020016000206000868685818110611d2957611d29612e24565b602090810292909201358352508101919091526040016000206004015460ff166003811115611d5a57611d5a612649565b14828281518110611d6d57611d6d612e24565b91151560209283029190910190910152600101611ce0565b50949350505050565b611d966123e4565b610a2f60006124ad565b611da86123e4565b610a2f6124fd565b611db86123e4565b6001600160a01b038116611e0e5760405162461bcd60e51b815260206004820152601a60248201527f48616269745374616b696e673a207a65726f2061646472657373000000000000604482015260640161057b565b6001600160a01b03811660009081526005602052604090205460ff1615611e775760405162461bcd60e51b815260206004820181905260248201527f48616269745374616b696e673a20616c72656164792061207665726966696572604482015260640161057b565b6001600160a01b038116600081815260056020526040808220805460ff1916600190811790915560068054918201815583527ff652222313e28459528d920b65115c16c04f3efc82aaedc97be59f3f377c0d3f0180546001600160a01b03191684179055517f6d05492139c5ea989514a5d2150c028041e5c087e2a39967f67dc7d2655adb819190a250565b611f0b6123e4565b6001600160a01b03811660009081526005602052604090205460ff16611f735760405162461bcd60e51b815260206004820152601c60248201527f48616269745374616b696e673a206e6f74206120766572696669657200000000604482015260640161057b565b6001600160a01b0381166000908152600560205260408120805460ff191690555b60065481101561208f57816001600160a01b031660068281548110611fbb57611fbb612e24565b6000918252602090912001546001600160a01b0316036120875760068054611fe590600190612bef565b81548110611ff557611ff5612e24565b600091825260209091200154600680546001600160a01b03909216918390811061202157612021612e24565b9060005260206000200160006101000a8154816001600160a01b0302191690836001600160a01b03160217905550600680548061206057612060612e3a565b600082815260209020810160001990810180546001600160a01b031916905501905561208f565b600101611f94565b506040516001600160a01b038216907f44a3cd4eb5cc5748f6169df057b1cb2ae4c383e87cd94663c430e095d4cba42490600090a250565b8360015481106120e95760405162461bcd60e51b815260040161057b90612af1565b3360009081526005602052604090205460ff166121185760405162461bcd60e51b815260040161057b90612e50565b6000858152600260209081526040808320600383528184208885529092529091206001600482015460ff16600381111561215457612154612649565b146121715760405162461bcd60e51b815260040161057b90612e96565b60048101805460ff191660031790556005810161218f858783612ed8565b506007820180549060006121a283612b9d565b91905055506000826003015483600401546121bd9190612bb6565b905080600760008282546121d19190612b8a565b92505081905550336001600160a01b031687897ff02f98ea02ac2b8e787322557b702a473cfdaab24b8a249da804c603b58757658989604051612215929190612f99565b60405180910390a486887f99070ea5934c62f6b56242bc175d305c300befa1ddcf88172777724ee85940088360405161225091815260200190565b60405180910390a35050505050505050565b61226a6123e4565b6001600160a01b03811661229457604051631e4fbdf760e01b81526000600482015260240161057b565b61149d816124ad565b8160015481106122bf5760405162461bcd60e51b815260040161057b90612af1565b3360009081526005602052604090205460ff166122ee5760405162461bcd60e51b815260040161057b90612e50565b600083815260036020908152604080832085845290915290206001600482015460ff16600381111561232257612322612649565b1461233f5760405162461bcd60e51b815260040161057b90612e96565b60048101805460ff1916600290811790915560008581526020919091526040812060060180549161236f83612b9d565b90915550506040513390849086907f597da6615832f7ae037664a27a2818a66858d24c3793ade9c20a5cef99feef7a90600090a450505050565b6000814210156123bb57506001919050565b620151806123c98342612bef565b6123d39190612bb6565b6123de906001612b8a565b92915050565b6000546001600160a01b03163314610a2f5760405163118cdaa760e01b815233600482015260240161057b565b612419612540565b6002600080516020612fb683398151915255565b600054600160a01b900460ff1615610a2f5760405163d93c066560e01b815260040160405180910390fd5b612460612570565b6000805460ff60a01b191690557f5db9ee0a495bf2e6ff9c91a7834c1ba4fdd244a5e8aa4e537bd38aeae4b073aa335b6040516001600160a01b03909116815260200160405180910390a1565b600080546001600160a01b038381166001600160a01b0319831681178455604051919092169283917f8be0079c531659141344cd1fd0a4f28419497f9722a3daafe3b4186f6b6457e09190a35050565b61250561242d565b6000805460ff60a01b1916600160a01b1790557f62e78cea01bee320cd4e420270b5ea74000d11b0c9f74754ebdbfc544b05a2586124903390565b600080516020612fb683398151915254600203610a2f57604051633ee5aeb560e01b815260040160405180910390fd5b600054600160a01b900460ff16610a2f57604051638dfc202b60e01b815260040160405180910390fd5b6040518060c0016040528060608152602001606081526020016060815260200160008152602001600060038111156125d4576125d4612649565b8152602001606081525090565b600080604083850312156125f457600080fd5b50508035926020909101359150565b6000815180845260005b818110156126295760208185018101518683018201520161260d565b506000602082860101526020601f19601f83011685010191505092915050565b634e487b7160e01b600052602160045260246000fd5b602081526000825160c0602084015261267b60e0840182612603565b90506020840151601f19808584030160408601526126998383612603565b925060408601519150808584030160608601526126b68383612603565b92506060860151608086015260808601519150600482106126e757634e487b7160e01b600052602160045260246000fd5b8160a086015260a08601519150808584030160c0860152506127098282612603565b95945050505050565b60008083601f84011261272457600080fd5b50813567ffffffffffffffff81111561273c57600080fd5b60208301915083602082850101111561275457600080fd5b9250929050565b60008060008060006060868803121561277357600080fd5b853567ffffffffffffffff8082111561278b57600080fd5b61279789838a01612712565b909750955060208801359150808211156127b057600080fd5b506127bd88828901612712565b96999598509660400135949350505050565b6000602082840312156127e157600080fd5b5035919050565b60008060008060008060008060a0898b03121561280457600080fd5b8835975060208901359650604089013567ffffffffffffffff8082111561282a57600080fd5b6128368c838d01612712565b909850965060608b013591508082111561284f57600080fd5b61285b8c838d01612712565b909650945060808b013591508082111561287457600080fd5b506128818b828c01612712565b999c989b5096995094979396929594505050565b6000602082840312156128a757600080fd5b81356001600160a01b03811681146128be57600080fd5b9392505050565b6020808252825182820181905260009190848201906040850190845b818110156128fd578351835292840192918401916001016128e1565b50909695505050505050565b602081526129236020820183516001600160a01b03169052565b60006020830151610140806040850152612941610160850183612603565b91506040850151601f1985840301606086015261295e8382612603565b92505060608501516080850152608085015160a085015260a085015160c085015260c085015160e085015260e08501516101008181870152808701519150506101206129ad8187018315159052565b90950151151593019290925250919050565b60008083601f8401126129d157600080fd5b50813567ffffffffffffffff8111156129e957600080fd5b6020830191508360208260051b850101111561275457600080fd5b60008060008060408587031215612a1a57600080fd5b843567ffffffffffffffff80821115612a3257600080fd5b612a3e888389016129bf565b90965094506020870135915080821115612a5757600080fd5b50612a64878288016129bf565b95989497509550505050565b6020808252825182820181905260009190848201906040850190845b818110156128fd578351151583529284019291840191600101612a8c565b60008060008060608587031215612ac057600080fd5b8435935060208501359250604085013567ffffffffffffffff811115612ae557600080fd5b612a6487828801612712565b60208082526022908201527f48616269745374616b696e673a20686162697420646f6573206e6f74206578696040820152611cdd60f21b606082015260800190565b60208082526021908201527f48616269745374616b696e673a206861626974206973206e6f742061637469766040820152606560f81b606082015260800190565b634e487b7160e01b600052601160045260246000fd5b808201808211156123de576123de612b74565b600060018201612baf57612baf612b74565b5060010190565b600082612bd357634e487b7160e01b600052601260045260246000fd5b500490565b80820281158282048414176123de576123de612b74565b818103818111156123de576123de612b74565b600181811c90821680612c1657607f821691505b6020821081036119bb57634e487b7160e01b600052602260045260246000fd5b634e487b7160e01b600052604160045260246000fd5b601f82111561087b576000816000526020600020601f850160051c81016020861015612c755750805b601f850160051c820191505b81811015612c9457828155600101612c81565b505050505050565b815167ffffffffffffffff811115612cb657612cb6612c36565b612cca81612cc48454612c02565b84612c4c565b602080601f831160018114612cff5760008415612ce75750858301515b600019600386901b1c1916600185901b178555612c94565b600085815260208120601f198616915b82811015612d2e57888601518255948401946001909101908401612d0f565b5085821015612d4c5787850151600019600388901b60f8161c191681555b5050505050600190811b01905550565b81835281816020850137506000828201602090810191909152601f909101601f19169091010190565b606081526000612d99606083018688612d5c565b6020830194909452506040015292915050565b60208082526026908201527f48616269745374616b696e673a2063616c6c6572206973206e6f74207468652060408201526539ba30b5b2b960d11b606082015260800190565b604081526000612e06604083018688612d5c565b8281036020840152612e19818587612d5c565b979650505050505050565b634e487b7160e01b600052603260045260246000fd5b634e487b7160e01b600052603160045260246000fd5b60208082526026908201527f48616269745374616b696e673a2063616c6c6572206973206e6f7420612076656040820152653934b334b2b960d11b606082015260800190565b60208082526022908201527f48616269745374616b696e673a2070726f6f66206973206e6f742070656e64696040820152616e6760f01b606082015260800190565b67ffffffffffffffff831115612ef057612ef0612c36565b612f0483612efe8354612c02565b83612c4c565b6000601f841160018114612f385760008515612f205750838201355b600019600387901b1c1916600186901b178355612f92565b600083815260209020601f19861690835b82811015612f695786850135825560209485019460019092019101612f49565b5086821015612f865760001960f88860031b161c19848701351681555b505060018560011b0183555b5050505050565b602081526000612fad602083018486612d5c565b94935050505056fe9b779b17422d0df92223018b32b4d1fa46e071723d6817e2486d003becc55f00a2646970667358221220181a438fd8f230b8dbd743a762a113eeb64afd9357d2cf36257cf10ed1e1c39464736f6c63430008180033",
  "linkReferences": {},
  "deployedLinkReferences": {}
}